:020000040800F2
:10000000A8170020E5030008ED030008EF0300082F
:10001000F1030008F3030008F503000800000000E6
:10002000000000000000000000000000B502000811
:10003000F9030008000000006D030008D103000868
:10004000FF030008FF030008FF030008FF03000888
:10005000FF030008FF030008FF030008FF03000878
:10006000FF030008FF030008FF030008FF03000868
:10007000FF030008FF030008FF030008FF03000858
:10008000FF030008FF030008FF030008FF03000848
:10009000FF030008FF030008FF030008FF03000838
:1000A000FF030008FF030008FF030008FF03000828
:1000B000FF030008FF030008FF030008FF03000818
:1000C000FF030008FF030008FF030008FF03000808
:1000D000FF030008FF030008FF030008FF030008F8
:1000E000FF030008FF030008FF030008FF030008E8
:1000F000FF030008FF030008FF030008FF030008D8
:10010000FF030008FF030008FF030008FF030008C7
:10011000FF030008FF030008FF030008FF030008B7
:10012000FF030008FF030008FF030008FF030008A7
:10013000FF030008FF030008FF030008FF03000897
:10014000FF030008FF030008FF030008FF03000887
:10015000FF030008FF030008FF030008FF03000877
:10016000FF030008FF030008FF030008FF03000867
:10017000FF030008FF030008FF0300080000000061
:10018000FF030008FF03000800F002F800F03CF84D
:100190000AA090E8000C82448344AAF10107DA45E2
:1001A00001D100F031F8AFF2090EBAE80F0013F0F8
:1001B000010F18BFFB1A43F001031847141E00007B
:1001C000341E0000103A24BF78C878C1FAD852070C
:1001D00024BF30C830C144BF04680C6070470000C1
:1001E0000023002400250026103A28BF78C1FBD840
:1001F000520728BF30C148BF0B6070471FB501F0E0
:1002000071FE1FBD10B510BD00F09AF91146FFF741
:10021000F5FF0FB400F00CF80FBC00F0C7FC00F0C5
:100220007CF903B4FFF7EEFF03BC00F083F9000094
:1002300004B000F0E1FC0448002100F031FD00F0C2
:10024000EDFC00F06AF90000901F000880F30988B7
:100250007047EFF309807047684680F309880448C7
:100260000078C00714BF0220032080F31488704771
:10027000501F0008DFF818C0EFF305831B0618BFF6
:100280006047EFF31483DB0708BF604700DF704768
:10029000E30D0008DFF818C0EFF305831B0618BF55
:1002A0006047EFF31483DB0708BF604700DF704748
:1002B0007D0F0008EFF30980816911F8021CE1BB92
:1002C00090E80F1010B5E047BDE81040EFF3098C3F
:1002D0008CE80700214B93E80600914208BF704765
:1002E00041B91EF0100F16D11D49086820F0010019
:1002F000086010E01EF0100F06BF2CED108A0120E0
:10030000002081F825002CE9F00FC1F828C00CB4BA
:1003100001F0E4F90CBC1A60D2F828C0BCE8F00F78
:1003200092F8250000280EBF6FF0020E6FF0120E3B
:10033000BCEC108A8CF30988704710B5094A126822
:10034000914209D8084C54F8214090E80F10A0477A
:10035000EFF3098C8CE80F0010BD00003400002082
:1003600034EF00E08C0500088C05000810B501F0A2
:1003700079F8BDE81040154B93E80600914208BF9C
:100380007047EFF3098C1EF0100F06BF2CED108A9A
:100390000120002081F825002CE9F00FC1F828C0C9
:1003A0000CB401F09BF90CBC1A60D2F828C0BCE870
:1003B000F00F92F8250000280EBF6FF0020E6FF0CC
:1003C000120EBCEC108A8CF30988704734000020B0
:1003D00010B501F04BFACCE710B500F001FD01F0CB
:1003E00045FAC6E70948804709480047FEE7FEE7A7
:1003F000FEE7FEE7FEE7FEE7FEE7FEE7FEE7FEE7D5
:1004000004480549054A064B70470000A909000841
:1004100089010008A8110020A8170020A8130020B7
:10042000A813002000487047940C002053EA020CE7
:1004300000F069802DE9F04B4FF00006002B1FBF44
:10044000B3FA83F503FA05F424FA05F65E4012BF09
:100450001643B2FA82F502FA05F4C5F120051EBF73
:1004600022FA05FC44EA0C04203556EA044C4FEA13
:10047000144418BF641C4FF000084FF0000990426C
:1004800071EB030C39D3002919BFB1FA81F701FAD6
:1004900007F6B0FA80F700FA07F6C7F120071EBF8B
:1004A00020FA07FC46EA0C062037B6FBF4FCA7EB63
:1004B0000507103F07F01F0BCBF120060CFA0BFBD2
:1004C0002CFA06F644BFB3460026202FA4BF5E4692
:1004D0004FF0000B5BEA060C08BF4FF0010B19EB65
:1004E0000B09ABFB027C48EB0608C01B06FB02CCE9
:1004F0000BFB03CC71EB0C01C1E70B4602464146F6
:100500004846BDE8F08B13B54FF000004FF00001F6
:10051000AFF30080BDE81C40704710B50446AFF350
:1005200000802046BDE81040FFF77BBE7047704753
:100530007047000001491820ABBEFEE7260002000C
:100540007546FFF76FFFAE4605006946534620F03B
:100550000700854618B020B5FFF752FFBDE82040E0
:100560004FF000064FF000074FF000084FF0000B6F
:1005700021F00701AC46ACE8C009ACE8C009ACE822
:10058000C009ACE8C0098D46704770470000000004
:1005900000BF022000F058F9044800F027FB0220B9
:1005A00000F042F9014800F021FBF2E7A0860100CB
:1005B00000BF002000F048F9044800F017FB0020BD
:1005C00000F032F9014800F011FBF2E7A0860100CB
:1005D000F8B502460B460025002400200021DCE08F
:1005E000012606FA01F51E6806EA0504AC4273D13D
:1005F0005E68022E02D05E68122E13D1CF0802F17F
:10060000200656F827004E07F70E0F26BE40B043CF
:100610004F07FF0E1E69BE403043CF0802F120068F
:1006200046F8270010684F000326BE40B0431E79ED
:1006300006F003064F00BE40304310605E68012E96
:1006400008D05E68022E05D05E68112E02D05E686A
:10065000122E13D190684F000326BE40B0434F00C6
:10066000DE68BE4030439060506801268E40B04343
:100670001E79C6F300168E4030435060D0684F009C
:100680000326BE40B0434F009E68BE403043D0605A
:100690005E6806F08056B6F1805F7DD100BF00260F
:1006A0000096404E366846F480463E4F3E603E46D9
:1006B000366806F48046009600BF00BF3A4E8F08A9
:1006C00056F827008E07370F0F26BE40B043374E2F
:1006D000B24202D1002624E05EE0354EB24201D1A2
:1006E00001261EE0334EB24201D1022619E0324EFD
:1006F000B24201D1032614E0304EB24201D10426A9
:100700000FE02F4EB24201D105260AE02D4EB24233
:1007100001D1062605E02C4EB24201D1072600E0A9
:1007200008268F073F0FBE4030431F4E8F0846F804
:100730002700264E3068A0435E6806F48036B6F582
:10074000803F00D12043214E3060361D3068A043E9
:100750005E6806F40036B6F5003F00D120431B4E1C
:10076000361D3060361D3068A0435E6806F4801682
:10077000B6F5801F00D12043144E08363060361D78
:100780003068A0435E6806F40016B6F5001F00D17D
:1007900020430E4E0C363060491C1029FFF420AF68
:1007A000F8BD000044380240083801400000024013
:1007B0000004024000080240000C02400010024009
:1007C0000014024000180240001C0240003C01409E
:1007D0000AB1816101E00B048361704700B587B005
:1007E00000BF002001900E48006840F008000C494E
:1007F00008600846006800F00800019000BF00BFD4
:100800004FF47040029001200390022004900020D9
:10081000059002A90348FFF7DBFE002007B000BDEA
:1008200030380240000C024010B50446054A02EB85
:10083000C4029188034A52F834000022FFF7C8FF2F
:10084000002010BD181F000810B50446054A02EB31
:10085000C4029188034A52F834000122FFF7B8FF1E
:10086000002010BD181F000810B504461948006884
:10087000401C184908601848006800F033FA17480F
:10088000006800F02FFA1349086800EBD071491096
:10089000A0EB410131B90021114800F001FA0E49E5
:1008A000086016E00B480068032190FBF1F201FBA1
:1008B000120040B107480068401E062190FBF1F28B
:1008C00001FB120028B90021064800F0E9F90349AC
:1008D000086010BD080000200C000020100000205F
:1008E000F81E0008081F000870B50020002202232F
:1008F00000240221274D2D6805F00C0020B10428AA
:1009000006D0082834D107E0234D244E356033E06B
:10091000234D224E35602FE01E4D2D1F2D68C5F34F
:1009200080541C4D2D1F2D6805F03F0154B11C4D06
:10093000B5FBF1F5174E361F3668C6F3881605FB72
:1009400006F209E0144DB5FBF1F5124E361F36687C
:10095000C6F3881605FB06F20E4D2D1F2D68C5F354
:1009600001456D1C6B00B2FBF3F50C4E356003E0E6
:10097000094D0A4E356000BF00BF064D2D68C5F316
:100980000315084E705D054D2D68C540034E35605A
:1009900070BD0000083802400024F4002800002048
:1009A00040787D01B81F00081448006840F47000CA
:1009B000124908601248006840F0010010490860C0
:1009C00000200F49083108600D4800680D490840B3
:1009D0000B4908600C48091D0860081F006820F4D6
:1009E0008020091F0860002005490C3108604FF085
:1009F00000600249803908607047000088ED00E01F
:100A000000380240FFFFF6FE1030002410B5002A27
:100A100006DA22F00042D21D22F00703102203E082
:100A2000D21C22F003030C2213B19C188C4201D972
:100A3000012010BD024401448360C0E90021C91AAD
:100A4000D018884202D810600246F9E700201060F2
:100A500010BD000005490978002905D000684FF64F
:100A6000FF71DFF80CC000DF704700002D00002090
:100A7000ED13000804490978002903D00068DFF865
:100A80000CC000DF704700002D0000201513000887
:100A900008480068C0010BD507480068C00707D0A8
:100AA000054880380068002802DA044901200870EF
:100AB00070470000FCED00E0800E00E048000020E0
:100AC0004FF06042D36F002BFCD0036BD367D36F22
:100AD000002BFCD0C07840EA0120A2F87C007047CF
:100AE0004FF06041CA6F002AFCD081F87C0070474B
:100AF0000EB5802200B109B110460AE00178012943
:100B0000FAD101A900F020F8042801D0002000E06B
:100B10001020DDE9011203B000BD70B50D460400E0
:100B200003D012B92078012801D0802070BD204662
:100B300000F0EAFA28B12946204600F030F80020FB
:100B400070BD812070BD000010B50446808900286A
:100B500024D0608904EB800000690860606840B1BF
:100B60006078022805D10021204600F0C9FC00F081
:100B7000B7FC04F10C0000BFD0E85F1F491E8AB229
:100B8000C0E8512F0029F7D16089401C80B26081F4
:100B9000E189884201D100206081042010BD10B598
:100BA00000F0AEFCBDE8104000F09ABCFFF716FE66
:100BB000FFF79AFE00F020F8094A0121094800F0E9
:100BC000AFF80949086000F029F84FF47A71064837
:100BD000006800F0BBF801E000F090F8FCE70000CE
:100BE00000000020F01E00080400002000BF011ECD
:100BF000A0F10100FBD17047EFF3058008B182201E
:100C00007047EFF31480C00703D0DFF80CC000DF9B
:100C1000704700F0EDBF0000F11B000888B0EFF353
:100C2000058010B1822008B07047EFF3148010F0F7
:100C30000301134806D001291BD0022911D0032932
:100C400019D113E008A981F309880078C0070BD0F7
:100C50005FF0020080F31488BFF34F8FBFF36F8FF4
:100C600009E00078C00706D10320F3E70078C00749
:100C700001D0FF20D7E7DFF80CC000DFD3E700008A
:100C8000501F0008611C0008EFF305820AB1FFF74E
:100C90002FBFDFF808C000DF70470000CD1C000840
:100CA000EFF305820AB100207047EFF31482D207F8
:100CB00002D1044A52781AB1DFF80CC000DF704745
:100CC00001F022B82C000020091D0008DFF80CC03C
:100CD00000DFDFF80CC000DFFEE70000751D000834
:100CE000911D0008EFF3058109B182207047DFF8FC
:100CF00008C000DF70470000911D0008EFF3058079
:100D000008B182207047DFF808C000DF704700009C
:100D1000C91D0008DFF804C000DF7047D31D0008BC
:100D2000EFF305830BB100207047EFF31483DB076B
:100D300002D1044B5B781BB1DFF80CC000DF7047B9
:100D400001F054B82C000020ED1D0008EFF30582DF
:100D50000AB182207047DFF808C000DF704700004A
:100D6000251E0008094C4FF0FF3529462068FFF783
:100D70008BFF02460846102AF7D1FFF7CBFF002869
:100D8000F3D0024608469047EFE700001800002025
:100D9000012806D0022805D0032804D0042804D155
:100DA00002E003E002E001E000E000BF00BF00BF9E
:100DB000FEE700BFFEE70000074801684FF0E020B3
:100DC000416100218161072101610448016841F00E
:100DD0007F410160401770474C1F000820ED00E084
:100DE000704750E8001F31B10B6840E80032002A1C
:100DF000F7D108467047BFF32F8FFAE710B568B1F7
:100E000061B10B3121F00302016844680B1A1B1B0E
:100E1000934205D2084609680029F5D1002010BD8B
:100E2000210007D021180368C1E90032016001F1F7
:100E3000080010BD4260083010BD000070B50D46BE
:100E4000002812D04FF6FF71084C884204D2226865
:100E50000146104600F082FB20684570044800F00F
:100E6000B7F8BDE8704000F04BBC70BD3400002006
:100E7000640C00207047000070B5194DE868002828
:100E80002CD0A88A401EA882002621E0A06838B194
:100E900061684160606810B1A16881606660A660A9
:100EA0000F482146183800F07DFBA08AA8826078A0
:100EB000042804D10B49E08A09880844A082012053
:100EC0006070E068E860E06808B10561E66026618E
:100ED000A88A002802D1EC68002CD7D170BD000090
:100EE0007C0C00204400002070B504000FD00D4D94
:100EF000A17801262868827891420CD900F06EFB17
:100F0000286846702046BDE8704000F0F9BB0648EE
:100F100000F05EF8F7E766702146BDE870400248D1
:100F200000F040BB34000020640C002010B50446E3
:100F3000008B084320836278618B062A18D0052A2B
:100F400019D1084217D001EA000262838843208346
:100F5000204600F07DFB01206070628B0821204656
:100F600000F06EFB2146BDE81040034800F01ABBBC
:100F700031EA0002EAD010BD640C0020814202D3A5
:100F800042688A4201D80120704702680A60BFF3B4
:100F90005F8F50E8003F0A689A42F6D140E800129D
:100FA000002AF2D10020704768B161B100220839EF
:100FB00002E00246006830B18842FAD12AB10068E6
:100FC0001060002070470120704700214160F8E761
:100FD0000146406842684A600B780022022B05D027
:100FE000012B03D0032B01D04260704743680BB143
:100FF00099604260826070470649074B48681B68E9
:1010000082789B789A4202D142684A6070470020F9
:1010100070470000640C002034000020810700D0DD
:101020000020704770B5044600201546207001224C
:101030006270A17084F824106060A060E06020619C
:101040002062A082E0822083608384F82500E08C07
:1010500018B90548FFF7C5FEE06229462046BDE8FD
:10106000704000F011B80000E001002008B108292C
:1010700001D2012070470144091F002201600A606B
:10108000426010467047704770B5C28C1C4D930883
:1010900002D12A88C2F38D03C26A02EB830254078D
:1010A00000D5121F4FF0807442E902140024264636
:1010B000B2F1400242F82460641C0E2CFAD3C469D9
:1010C0001462826201632968C90014D5112B12D9F8
:1010D0004FF0FF31103B11EB53014FF0CC3305D0F3
:1010E00042F8043C42F8083D491EF9D1C16A121F7A
:1010F0008A4200D91360C06A0249016070BD0000D5
:101100003C1F0008A52E5AE2C1898089081A704741
:10111000012202700022427082704260028142818C
:10112000103982818908C181704700002DE9F041A2
:10113000044640680E464FF0000804F10C05E8B381
:101140006078012701283ED0022813D003285CD103
:101150000846FFF746FE050057D02046FFF738FF48
:101160000446294600F066FA6770204600F070FADF
:10117000214621E02046FFF72BFF0646002100F024
:1011800059FA2189F06904EB81010861D5E85F0F04
:10119000401C81B2C5E8501F0028F7D12089401CAF
:1011A00080B22081E189884201D1A4F8088077705B
:1011B000304600F04DFA3146174800E00CE0BDE83B
:1011C000F04100F0EFB92046FFF702FF0446324637
:1011D000102100F035FAC7E7A089E189884216D2CC
:1011E000208904EB80000661D5E85F0F401C81B2C6
:1011F000C5E8501F0028F7D12089401C80B220810B
:10120000E189884201D1A4F80880BDE8F081BDE8F9
:10121000F0410320FFF7BCBD640C002070B504460C
:10122000808915460026C0B3608904EB8000006900
:1012300008606089401C80B26081E189884200D1E9
:101240006681606810B1607802280BD014F10C043C
:10125000D4E85F0F401E81B2C4E8501F0028F7D1C8
:10126000002070BD2046FFF7B3FE0546002100F0C8
:10127000E1F92189E86904EB810108612089401CBA
:1012800080B22081E189884200D12681284600F081
:10129000DFF92846FFF728FEE2E7FFE73DB10B48FC
:1012A000626801682AB1204600F07CF908E001205C
:1012B00070BD616001684E600068846001206070EC
:1012C00008212846FFF7BAFDF1E7000034000020AE
:1012D000002814D0411C13D00C4A4FF6FE719042E6
:1012E0000CD800EB4002C2EBC0120948036803EBC4
:1012F000C202521EB2FBF3F0884204D9084670477E
:101300004FF6FF70704780B27047000000093D0043
:101310005C1F00082DE9F0410446408820B1314DA2
:10132000A1682A68914202D0FF20BDE8F081401EEA
:101330000004000C608053D12968086AA04209D1DA
:10134000E068086208E0C268A24202D1E268C260B6
:1013500002E010460028F6D191F824000A6A06E05F
:1013600053681BB19B78834200D91846D268002A83
:10137000F6D18870DFF870806168012611B32046CD
:10138000FFF726FE0746002100F054F9384600F02A
:101390005FF96680A760386AE0603C622968D8F827
:1013A00004008A788078824201D3384616E00E48DD
:1013B00000F0F8F839460C4800F0F4F82868467058
:1013C0007E700AE0D8F804108A782968824207D92A
:1013D000054800F0E7F8286846700020FFF784FD14
:1013E0000020A2E734000020640C002070B51C4DE2
:1013F0000E4604464188286861B1A268824210D135
:10140000A1F57F40FF3803D0491C6180002070BDEA
:10141000FF2070BDA060016AE1600462012060806D
:10142000F4E776B191788078814203D29070A06819
:1014300000F0DEF8606830B12046296800F0B2F8AC
:1014400008E0012070BD28686060296800204860BD
:101450002868846009213046FFF7F0FCF1E70000BE
:101460003400002070B51B480121026851700068EB
:1014700000F0B4F8184D6C7818E000BF05EBC4011B
:1014800048680278EAB1012A20D000F00DF9E87826
:10149000641C844200D100240F48801CD0E84F1FF8
:1014A000491EC9B2C0E8421F002AF7D1A878002817
:1014B000E4D16C700948FFF78BFDBDE8704000F087
:1014C0001FB9098989B2FFF731FDE0E78968FFF7A5
:1014D0002DFEDCE73400002050080020640C0020C2
:1014E0000548017811B101214170704703494FF05F
:1014F00080500860704700003C00002004ED00E0D0
:10150000F0B4154DAB1CEE784FEA0507D3E84F2F2A
:10151000B24202D1BFF32F8F11E0521CD4B2C3E804
:10152000424F002AF2D100BFD7E84F2F541CB442DB
:1015300000D10024E4B2C7E8434F002BF4D1EB788C
:10154000934205D905EBC202C2E90101F0BC704724
:10155000F0BC0220FFF71CBC50080020104A10B558
:10156000D368ABB113469B8A03E08CB12246A48AB0
:101570002344D4688B42F8D3C460D0600261C4684D
:1015800004B12061591A8182908A401A908210BD5C
:101590000024C460D060C91A02619182848210BDA7
:1015A0007C0C002030B502780023022A03D0012AE7
:1015B00001D0032A00D101238C7800E01046426854
:1015C00012B19578A542F9D24A6041601BB102B1CF
:1015D0009160886030BD0020FBE7000003494A6845
:1015E000426000228260486070470000640C002066
:1015F00010B5836804462BB9607801280ED1084BDA
:1016000003E09B6818780028FBD0204600F034F8EF
:101610002146BDE810401846FFF7C4BF10BD0000CA
:10162000640C002090F82510806A09B16030704782
:101630002030704710B50C46FFF7F4FF046010BD72
:1016400070B515460C46FFF7EDFFC0E9004570BDCB
:1016500010B5016900290ED0C268CA60C3680022B3
:101660003BB18B8A848A23448B82C3681961C26030
:1016700000E08A82026110BD816839B142684A6027
:101680004168002901D0806888607047054906E0FC
:101690004A68824202D1406848607047114600297A
:1016A000F6D17047640C002010B5416881B1FFF796
:1016B0008FFC0446FFF7CCFF0120607001462046F6
:1016C000FFF7B8FF2146BDE810400348FFF76ABFA7
:1016D0004188491C418010BD640C00200648006808
:1016E000D0E90A10814203D300680449884202D03D
:1016F0000120FFF74DBB704734000020A52E5AE2B1
:101700000749022248604270064A1278002A05D032
:1017100006C98A4202D0C078FFF7E2B970470000DC
:10172000340000204800002070B5FFF7B1F9002018
:101730000446204A204902E042F82040401C0B8821
:101740009842F9D31D48342201881D48FFF75EF9FD
:101750001C48008880B240F000421B4801681B48CA
:10176000FFF754F91A48082201881A480068FFF761
:101770004DF9194DFF20194AE870EC8400212846E4
:10178000FFF750FC164804210170446015480170B1
:10179000C4600461848214481549056002206870A1
:1017A0001248047044700978C170BDE87040FFF7BA
:1017B0006ABC0000D4080020381F0008641F00081D
:1017C000680000203C1F0008681F0008E00100209E
:1017D0008C1F000820000020300C0020B30D0008F2
:1017E000640C00207C0C00203400002050080020F5
:1017F000701F00081B4810B5016841F47F010160AB
:1018000000684FF07F4101EA00201649C0431439B7
:10181000B0FA80F00968C0F10800C1F302218142EA
:1018200000D3481C0F49091F0B686FF0807282407B
:1018300063F317020A60FFF7BFFA0B49002808603C
:101840000EDB00F1E021FF2281F8002400F01F02EE
:10185000012191404009800000F1E020C0F8001112
:1018600010BD000020ED00E0400000200C4810B545
:101870000268012151700068FFF7B0FEFFF7FAFA25
:1018800008480168491C0160FFF7F6FA00F0FCFA0D
:101890000548FFF79DFBBDE81040FFF731BF000092
:1018A0003400002044000020640C0020002805D0F3
:1018B000810702D10178002900D000207047000084
:1018C00030B50B4C0023626805E095688D4204D862
:1018D00013461268491B002AF7D10260816012B1D9
:1018E0009568691A91600BB1186030BD606030BDB9
:1018F0002C0000200D4B0022596803E0814204D0E7
:101900000A4609680029F9D104E019B1016822B139
:10191000116003E04FF0FF3070475960016819B162
:101920008A68806810448860002070472C0000207E
:101930002DE9F0411E46174680460D4611F0FF0F77
:1019400000D14D1C1848FFF74CFA041E16D0280A87
:10195000E762E084E9B242462046E661FFF762FBB7
:1019600001251248124905E000EB850252F8042CCB
:1019700032B16D1C0A889542F6D90020BDE8F0818D
:10198000002DFAD000EB850040F8044C0948E570C2
:10199000007818B101212046FFF792F82046FFF7A2
:1019A000A3FA2846EAE7000068000020D4080020D7
:1019B000381F0008480000202DE9F05F584DDFF87F
:1019C0005891DFF8588129684FF0010A002618B1B4
:1019D000CA78AB46824243D14E70FEF73AFC296882
:1019E0008862FFF77BFE2868046A1FE06068C0B168
:1019F0002046FFF7EDFA07460021FFF71BFE3846A9
:101A0000FFF726FE87F801A039464648FFF7CAFDD2
:101A1000E168A4F802A0A760386AE0603C620C4666
:101A200004E0E0686680A660E6600446002CDDD134
:101A30002868C27808EB820141F8046CC16A3A4810
:101A4000FFF79CFA2868C66299F8001011B10021CE
:101A5000FFF736F835482968FFF790FA2E6056E010
:101A60003349098888420CD808EB800858F8045C90
:101A70003DB12846FFF700FE2846FFF7E9FD2C6A36
:101A800022E0FF20BDE8F09F6068C0B12046FFF76C
:101A90009FFA07460021FFF7CDFD3846FFF7D8FD36
:101AA00087F801A039461F48FFF77CFDE168A4F8DC
:101AB00002A0A760386AE0603C620C4604E0E0687F
:101AC0006680A660E6600446002CDDD148F8046C10
:101AD0001548E96AFFF752FAEE6299F8000018B16A
:101AE00000212846FEF7ECFF29461048FFF746FA8A
:101AF0000C48DBF8001040688B7882789A4209D94C
:101B000081F801A00748DBF80010FFF74BFD00202B
:101B1000FFF7EAF90020B5E748000020D4080020CC
:101B200034000020640C0020E00100206800002048
:101B3000381F000870B5FFF75FFA04000CD0074D9E
:101B400007482968FFF72EFD2968012048702046C4
:101B5000BDE87040FFF7D4BD70BD00003400002028
:101B6000640C002070B51A4D80B11A4A1288904258
:101B70001FD8194A02EB800050F8044CCCB1A17078
:101B800084F824102868A04205D014E028688170E9
:101B9000286880F82410114840688078884215D958
:101BA0000E482968FFF7FEFC2968012048700020D4
:101BB0000AE0FF2070BD2046FFF71AFD607801287B
:101BC00004D10648FFF704FAFFF78EF9002070BD34
:101BD00034000020381F0008D4080020640C0020C6
:101BE00002480068002800D0C07870473400002008
:101BF00010B5134C207860B91248400705D112483F
:101C000001681048FFF732FA08B1852010BDFFF7D0
:101C10008BFD0E49FF2009688870207858B9002193
:101C20000B4800F041F80B49086000210A4800F019
:101C30006BF80A490860012020700020607010BD18
:101C40002C000020A00600206C1F0008340000209B
:101C5000841F000818000020741F000814000020D2
:101C600070B50F4D687808B1002070BD0D4C20682C
:101C700090F824100020FFF775FF2068C178FF2935
:101C800003D1816A203181F30988616811B96060EC
:101C900000202060FFF7AEFD01206870E4E700003F
:101CA0002C0000203400002010B5040005D021686D
:101CB00019B1606808B102780AB1002010BD89002E
:101CC000103189B2FFF724FA606810BD3EB50400F8
:101CD0000D464FF0800012D0217801290FD12846FF
:101CE000FFF7F6FA0246204601A9FFF797FA012806
:101CF00001D0102003E00DB1402000E00020DDE91C
:101D0000011203B030BD000070B50E46040029D0AA
:101D1000206838B3606810F1030F23DB032821DC4F
:101D2000E16829B11048FFF769F805001AD000E012
:101D300000256068E168001D40EA012133462A461B
:101D40002068FFF7F5FD40B1084901EB8000084924
:101D500050F8040C826A516370BD1DB129460248D7
:101D6000FFF722F9002070BDA0060020D408002053
:101D7000CD0C000810B5FFF733FF002804D003494D
:101D800001EB800050F8040C10BD0000D4080020C6
:101D900010B5FFF78BFD18B1C18C19B1C46A02E010
:101DA000802010BD0024C078FFF706FEFF2806D073
:101DB0001CB121460348FFF7F7F8002010BD812031
:101DC00010BD0000A006002010B5FFF7B3FE0020F4
:101DD00010BD10B5FFF722F920B141690A68016909
:101DE000104610BD0020014610BD000010B50300D4
:101DF0000CD0186850B15868002808D009B10129E2
:101E000004D1074C24680CB104790CB1002010BD3A
:101E100000240460012404714171C0E9042310BD51
:101E20001400002070B50E46FFF7F8F8040016D035
:101E3000BEB1144A00214FF47A7310681268401E34
:101E400041F1FF35E6FB030529460023FEF7EEFAD4
:101E50000546207901280CD0022808D103E0802013
:101E600070BD862070BD2046FFF744FD20B1812063
:101E700070BD02202071E56029462046FFF720FD55
:101E8000002070BD5C1F00082DE9F041134E7468FE
:101E9000002C1CD0A068124F401E4FF00108A0601B
:101EA00012E0254624687460002229463868FEF74F
:101EB00034FE10B10420FEF76BFF6879012808D0CA
:101EC00085F80480002C02D0A0680028E9D0BDE885
:101ED000F0812846E968FFF7F3FCF3E72C000020C7
:101EE000180000204FF04070E1EE100A704700002B
:101EF000690800084C00002091050008000000005F
:101F00000100000000000000B10500080000000012
:101F10000100000000000000000C02400010000062
:101F2000000C024000200000000C024000400000B5
:101F3000000C02400080000007000000C800020101
:101F400005000000001BB7000C000000DF2E0000A1
:101F5000010000000200010052000400E80300003C
:101F60000000000078010000C0040000B001000083
:101F700010000000650D00080200000001000000D4
:101F8000C800000004000000F0080020000000006D
:101F9000AD0B00080000000001000000C8000000B8
:101FA0000100000140000000000D00200011002091
:101FB0008011002000000000000000000000000070
:101FC00001020304060708090000000001020304DF
:101FD000F01F0008000000204C000000C4010008B1
:101FE0003C2000084C0000205C170000E0010008C5
:101FF00000000000000000000000000000000000E1
:1020000000000000000000000000000000000000D0
:1020100000000000000000000024F40000000000A8
:1020200000000000000000000000000000000000B0
:0C203000000000000000000000000000A4
:04000005080003E507
:00000001FF
